{
  "contractName": "Registry",
  "abi": [
    {
      "inputs": [],
      "stateMutability": "nonpayable",
      "type": "constructor"
    },
    {
      "inputs": [
        {
          "internalType": "address",
          "name": "",
          "type": "address"
        }
      ],
      "name": "admins",
      "outputs": [
        {
          "internalType": "address",
          "name": "adminAddress",
          "type": "address"
        },
        {
          "internalType": "string",
          "name": "city",
          "type": "string"
        },
        {
          "internalType": "string",
          "name": "sub_county",
          "type": "string"
        },
        {
          "internalType": "string",
          "name": "county",
          "type": "string"
        }
      ],
      "stateMutability": "view",
      "type": "function",
      "constant": true
    },
    {
      "inputs": [
        {
          "internalType": "string",
          "name": "",
          "type": "string"
        },
        {
          "internalType": "string",
          "name": "",
          "type": "string"
        },
        {
          "internalType": "string",
          "name": "",
          "type": "string"
        },
        {
          "internalType": "uint256",
          "name": "",
          "type": "uint256"
        }
      ],
      "name": "houseDetalsMap",
      "outputs": [
        {
          "internalType": "address",
          "name": "owner",
          "type": "address"
        },
        {
          "internalType": "address",
          "name": "admin",
          "type": "address"
        },
        {
          "internalType": "uint256",
          "name": "propertyId",
          "type": "uint256"
        },
        {
          "internalType": "uint256",
          "name": "deedNumber",
          "type": "uint256"
        },
        {
          "internalType": "uint256",
          "name": "index",
          "type": "uint256"
        },
        {
          "internalType": "bool",
          "name": "registered",
          "type": "bool"
        },
        {
          "internalType": "uint256",
          "name": "marketValue",
          "type": "uint256"
        },
        {
          "internalType": "bool",
          "name": "markAvailable",
          "type": "bool"
        },
        {
          "internalType": "uint256",
          "name": "noOfRequests",
          "type": "uint256"
        },
        {
          "internalType": "uint256",
          "name": "sqft",
          "type": "uint256"
        }
      ],
      "stateMutability": "view",
      "type": "function",
      "constant": true
    },
    {
      "inputs": [
        {
          "internalType": "address",
          "name": "",
          "type": "address"
        },
        {
          "internalType": "uint256",
          "name": "",
          "type": "uint256"
        }
      ],
      "name": "ownerMapsProperty",
      "outputs": [
        {
          "internalType": "uint256",
          "name": "deedNumber",
          "type": "uint256"
        },
        {
          "internalType": "string",
          "name": "county",
          "type": "string"
        },
        {
          "internalType": "string",
          "name": "sub_county",
          "type": "string"
        },
        {
          "internalType": "string",
          "name": "city",
          "type": "string"
        }
      ],
      "stateMutability": "view",
      "type": "function",
      "constant": true
    },
    {
      "inputs": [
        {
          "internalType": "address",
          "name": "",
          "type": "address"
        },
        {
          "internalType": "uint256",
          "name": "",
          "type": "uint256"
        }
      ],
      "name": "requestedHouses",
      "outputs": [
        {
          "internalType": "uint256",
          "name": "deedNumber",
          "type": "uint256"
        },
        {
          "internalType": "string",
          "name": "county",
          "type": "string"
        },
        {
          "internalType": "string",
          "name": "sub_county",
          "type": "string"
        },
        {
          "internalType": "string",
          "name": "city",
          "type": "string"
        }
      ],
      "stateMutability": "view",
      "type": "function",
      "constant": true
    },
    {
      "inputs": [],
      "name": "superAdmin",
      "outputs": [
        {
          "internalType": "address",
          "name": "",
          "type": "address"
        }
      ],
      "stateMutability": "view",
      "type": "function",
      "constant": true
    },
    {
      "inputs": [],
      "name": "totalAdmins",
      "outputs": [
        {
          "internalType": "uint256",
          "name": "",
          "type": "uint256"
        }
      ],
      "stateMutability": "view",
      "type": "function",
      "constant": true
    },
    {
      "inputs": [
        {
          "internalType": "address",
          "name": "",
          "type": "address"
        }
      ],
      "name": "userProfile",
      "outputs": [
        {
          "internalType": "address",
          "name": "userAddr",
          "type": "address"
        },
        {
          "internalType": "string",
          "name": "fullName",
          "type": "string"
        },
        {
          "internalType": "string",
          "name": "gender",
          "type": "string"
        },
        {
          "internalType": "string",
          "name": "email",
          "type": "string"
        },
        {
          "internalType": "uint256",
          "name": "contact",
          "type": "uint256"
        },
        {
          "internalType": "string",
          "name": "residentialAddr",
          "type": "string"
        },
        {
          "internalType": "uint256",
          "name": "totalIndices",
          "type": "uint256"
        },
        {
          "internalType": "uint256",
          "name": "requestIndices",
          "type": "uint256"
        }
      ],
      "stateMutability": "view",
      "type": "function",
      "constant": true
    },
    {
      "inputs": [
        {
          "internalType": "address",
          "name": "_adminAddr",
          "type": "address"
        },
        {
          "internalType": "string",
          "name": "_county",
          "type": "string"
        },
        {
          "internalType": "string",
          "name": "_district",
          "type": "string"
        },
        {
          "internalType": "string",
          "name": "_city",
          "type": "string"
        }
      ],
      "name": "addAdmin",
      "outputs": [],
      "stateMutability": "nonpayable",
      "type": "function"
    },
    {
      "inputs": [],
      "name": "isAdmin",
      "outputs": [
        {
          "internalType": "bool",
          "name": "",
          "type": "bool"
        }
      ],
      "stateMutability": "view",
      "type": "function",
      "constant": true
    },
    {
      "inputs": [
        {
          "internalType": "string",
          "name": "_county",
          "type": "string"
        },
        {
          "internalType": "string",
          "name": "_district",
          "type": "string"
        },
        {
          "internalType": "string",
          "name": "_city",
          "type": "string"
        },
        {
          "internalType": "uint256",
          "name": "_propertyId",
          "type": "uint256"
        },
        {
          "internalType": "uint256",
          "name": "_deedNo",
          "type": "uint256"
        },
        {
          "internalType": "address",
          "name": "_owner",
          "type": "address"
        },
        {
          "internalType": "uint256",
          "name": "_marketValue",
          "type": "uint256"
        },
        {
          "internalType": "uint256",
          "name": "_sqft",
          "type": "uint256"
        }
      ],
      "name": "registerHouse",
      "outputs": [],
      "stateMutability": "nonpayable",
      "type": "function"
    },
    {
      "inputs": [
        {
          "internalType": "string",
          "name": "_fullName",
          "type": "string"
        },
        {
          "internalType": "string",
          "name": "_gender",
          "type": "string"
        },
        {
          "internalType": "string",
          "name": "_email",
          "type": "string"
        },
        {
          "internalType": "uint256",
          "name": "_contact",
          "type": "uint256"
        },
        {
          "internalType": "string",
          "name": "_residentialAddr",
          "type": "string"
        }
      ],
      "name": "setUserProfile",
      "outputs": [],
      "stateMutability": "nonpayable",
      "type": "function"
    },
    {
      "inputs": [
        {
          "internalType": "uint256",
          "name": "indexNo",
          "type": "uint256"
        }
      ],
      "name": "markMyPropertyAvailable",
      "outputs": [],
      "stateMutability": "nonpayable",
      "type": "function"
    },
    {
      "inputs": [
        {
          "internalType": "string",
          "name": "_county",
          "type": "string"
        },
        {
          "internalType": "string",
          "name": "_district",
          "type": "string"
        },
        {
          "internalType": "string",
          "name": "_city",
          "type": "string"
        },
        {
          "internalType": "uint256",
          "name": "_deedNo",
          "type": "uint256"
        }
      ],
      "name": "RequestForBuy",
      "outputs": [],
      "stateMutability": "nonpayable",
      "type": "function"
    },
    {
      "inputs": [
        {
          "internalType": "uint256",
          "name": "_index",
          "type": "uint256"
        },
        {
          "internalType": "uint256",
          "name": "_reqNo",
          "type": "uint256"
        }
      ],
      "name": "AcceptRequest",
      "outputs": [],
      "stateMutability": "nonpayable",
      "type": "function"
    },
    {
      "inputs": [
        {
          "internalType": "string",
          "name": "_county",
          "type": "string"
        },
        {
          "internalType": "string",
          "name": "_district",
          "type": "string"
        },
        {
          "internalType": "string",
          "name": "_city",
          "type": "string"
        },
        {
          "internalType": "uint256",
          "name": "_deedNo",
          "type": "uint256"
        }
      ],
      "name": "getHouseDetails",
      "outputs": [
        {
          "internalType": "address",
          "name": "",
          "type": "address"
        },
        {
          "internalType": "uint256",
          "name": "",
          "type": "uint256"
        },
        {
          "internalType": "uint256",
          "name": "",
          "type": "uint256"
        },
        {
          "internalType": "uint256",
          "name": "",
          "type": "uint256"
        },
        {
          "internalType": "uint256",
          "name": "",
          "type": "uint256"
        }
      ],
      "stateMutability": "view",
      "type": "function",
      "constant": true
    },
    {
      "inputs": [
        {
          "internalType": "string",
          "name": "_county",
          "type": "string"
        },
        {
          "internalType": "string",
          "name": "_district",
          "type": "string"
        },
        {
          "internalType": "string",
          "name": "_city",
          "type": "string"
        },
        {
          "internalType": "uint256",
          "name": "_deedNo",
          "type": "uint256"
        }
      ],
      "name": "getRequestCnt_propId",
      "outputs": [
        {
          "internalType": "uint256",
          "name": "",
          "type": "uint256"
        },
        {
          "internalType": "uint256",
          "name": "",
          "type": "uint256"
        }
      ],
      "stateMutability": "view",
      "type": "function",
      "constant": true
    },
    {
      "inputs": [
        {
          "internalType": "string",
          "name": "_county",
          "type": "string"
        },
        {
          "internalType": "string",
          "name": "_district",
          "type": "string"
        },
        {
          "internalType": "string",
          "name": "_city",
          "type": "string"
        },
        {
          "internalType": "uint256",
          "name": "_deedNo",
          "type": "uint256"
        },
        {
          "internalType": "uint256",
          "name": "_reqIndex",
          "type": "uint256"
        }
      ],
      "name": "getRequesterDetail",
      "outputs": [
        {
          "internalType": "address",
          "name": "",
          "type": "address"
        }
      ],
      "stateMutability": "view",
      "type": "function",
      "constant": true
    },
    {
      "inputs": [
        {
          "internalType": "string",
          "name": "_county",
          "type": "string"
        },
        {
          "internalType": "string",
          "name": "_district",
          "type": "string"
        },
        {
          "internalType": "string",
          "name": "_city",
          "type": "string"
        },
        {
          "internalType": "uint256",
          "name": "_deedNo",
          "type": "uint256"
        }
      ],
      "name": "isAvailable",
      "outputs": [
        {
          "internalType": "bool",
          "name": "",
          "type": "bool"
        }
      ],
      "stateMutability": "view",
      "type": "function",
      "constant": true
    },
    {
      "inputs": [
        {
          "internalType": "uint256",
          "name": "indx",
          "type": "uint256"
        }
      ],
      "name": "getOwnerOwns",
      "outputs": [
        {
          "internalType": "string",
          "name": "",
          "type": "string"
        },
        {
          "internalType": "string",
          "name": "",
          "type": "string"
        },
        {
          "internalType": "string",
          "name": "",
          "type": "string"
        },
        {
          "internalType": "uint256",
          "name": "",
          "type": "uint256"
        }
      ],
      "stateMutability": "view",
      "type": "function",
      "constant": true
    },
    {
      "inputs": [
        {
          "internalType": "uint256",
          "name": "indx",
          "type": "uint256"
        }
      ],
      "name": "getRequestedHouses",
      "outputs": [
        {
          "internalType": "string",
          "name": "",
          "type": "string"
        },
        {
          "internalType": "string",
          "name": "",
          "type": "string"
        },
        {
          "internalType": "string",
          "name": "",
          "type": "string"
        },
        {
          "internalType": "uint256",
          "name": "",
          "type": "uint256"
        }
      ],
      "stateMutability": "view",
      "type": "function",
      "constant": true
    },
    {
      "inputs": [],
      "name": "getUserProfile",
      "outputs": [
        {
          "internalType": "string",
          "name": "",
          "type": "string"
        },
        {
          "internalType": "string",
          "name": "",
          "type": "string"
        },
        {
          "internalType": "string",
          "name": "",
          "type": "string"
        },
        {
          "internalType": "uint256",
          "name": "",
          "type": "uint256"
        },
        {
          "internalType": "string",
          "name": "",
          "type": "string"
        }
      ],
      "stateMutability": "view",
      "type": "function",
      "constant": true
    },
    {
      "inputs": [],
      "name": "getIndices",
      "outputs": [
        {
          "internalType": "uint256",
          "name": "",
          "type": "uint256"
        },
        {
          "internalType": "uint256",
          "name": "",
          "type": "uint256"
        }
      ],
      "stateMutability": "view",
      "type": "function",
      "constant": true
    },
    {
      "inputs": [
        {
          "internalType": "string",
          "name": "_county",
          "type": "string"
        },
        {
          "internalType": "string",
          "name": "_district",
          "type": "string"
        },
        {
          "internalType": "string",
          "name": "_city",
          "type": "string"
        },
        {
          "internalType": "uint256",
          "name": "_deedNo",
          "type": "uint256"
        }
      ],
      "name": "didIRequested",
      "outputs": [
        {
          "internalType": "bool",
          "name": "",
          "type": "bool"
        }
      ],
      "stateMutability": "view",
      "type": "function",
      "constant": true
    }
  ],
  "bytecode": "0x608060405234801561001057600080fd5b50336000806101000a81548173ffffffffffffffffffffffffffffffffffffffff021916908373ffffffffffffffffffffffffffffffffffffffff160217905550614a32806100606000396000f3fe608060405234801561001057600080fd5b506004361061014d5760003560e01c80636f61c744116100c3578063d06efd671161007c578063d06efd67146103f8578063d1dbeff214610429578063d41cc5c81461045c578063eaec23fa14610478578063eb68048b146104a8578063eec9de97146104c65761014d565b80636f61c744146103175780638a80e4e414610339578063992369da14610355578063b6db75a014610385578063bfde241c146103a3578063c576fbea146103bf5761014d565b8063429b62e511610115578063429b62e51461022657806344e05734146102595780635863056d146102755780635980445214610294578063690e14f9146102c85780636d1b9a8e146102e45761014d565b806303825d6c146101525780631c8e89621461016e57806329575f6a146101a557806339a4419f146101c35780633bbd43b3146101f6575b600080fd5b61016c60048036038101906101679190613c0c565b6104f9565b005b61018860048036038101906101839190613cc7565b6105e9565b60405161019c989796959493929190613da4565b60405180910390f35b6101ad610871565b6040516101ba9190613e3e565b60405180910390f35b6101dd60048036038101906101d89190613e85565b610895565b6040516101ed9493929190613eb2565b60405180910390f35b610210600480360381019061020b9190613f0c565b610baa565b60405161021d9190613e3e565b60405180910390f35b610240600480360381019061023b9190613cc7565b610c5b565b6040516102509493929190613fdb565b60405180910390f35b610273600480360381019061026e9190613e85565b610e43565b005b61027d611283565b60405161028b929190614035565b60405180910390f35b6102ae60048036038101906102a9919061405e565b611320565b6040516102bf959493929190614119565b60405180910390f35b6102e260048036038101906102dd919061416c565b611591565b005b6102fe60048036038101906102f99190613e85565b611c06565b60405161030e9493929190613eb2565b60405180910390f35b61031f611f1b565b604051610330959493929190614276565b60405180910390f35b610353600480360381019061034e919061405e565b6122c2565b005b61036f600480360381019061036a919061405e565b6125a9565b60405161037c9190614300565b60405180910390f35b61038d612632565b60405161039a9190614300565b60405180910390f35b6103bd60048036038101906103b8919061431b565b6126db565b005b6103d960048036038101906103d4919061405e565b612793565b6040516103ef9a99989796959493929190614406565b60405180910390f35b610412600480360381019061040d919061405e565b6128aa565b604051610420929190614035565b60405180910390f35b610443600480360381019061043e91906144a2565b61299c565b60405161045394939291906144e2565b60405180910390f35b6104766004803603810190610471919061453c565b612b71565b005b610492600480360381019061048d919061405e565b613667565b60405161049f9190614300565b60405180910390f35b6104b0613796565b6040516104bd919061457c565b60405180910390f35b6104e060048036038101906104db91906144a2565b61379c565b6040516104f094939291906144e2565b60405180910390f35b6000600260008673ffffffffffffffffffffffffffffffffffffffff1673ffffffffffffffffffffffffffffffffffffffff16815260200190815260200160002090506001600081548092919061054f906145c6565b9190505550848160000160006101000a81548173ffffffffffffffffffffffffffffffffffffffff021916908373ffffffffffffffffffffffffffffffffffffffff160217905550818160010190805190602001906105af929190613971565b50828160020190805190602001906105c8929190613971565b50838160030190805190602001906105e1929190613971565b505050505050565b60066020528060005260406000206000915090508060000160009054906101000a900473ffffffffffffffffffffffffffffffffffffffff16908060010180546106329061463e565b80601f016020809104026020016040519081016040528092919081815260200182805461065e9061463e565b80156106ab5780601f10610680576101008083540402835291602001916106ab565b820191906000526020600020905b81548152906001019060200180831161068e57829003601f168201915b5050505050908060020180546106c09061463e565b80601f01602080910402602001604051908101604052809291908181526020018280546106ec9061463e565b80156107395780601f1061070e57610100808354040283529160200191610739565b820191906000526020600020905b81548152906001019060200180831161071c57829003601f168201915b50505050509080600301805461074e9061463e565b80601f016020809104026020016040519081016040528092919081815260200182805461077a9061463e565b80156107c75780601f1061079c576101008083540402835291602001916107c7565b820191906000526020600020905b8154815290600101906020018083116107aa57829003601f168201915b5050505050908060040154908060050180546107e29061463e565b80601f016020809104026020016040519081016040528092919081815260200182805461080e9061463e565b801561085b5780601f106108305761010080835404028352916020019161085b565b820191906000526020600020905b81548152906001019060200180831161083e57829003601f168201915b5050505050908060060154908060070154905088565b60008054906101000a900473ffffffffffffffffffffffffffffffffffffffff1681565b6060806060600080600460003373ffffffffffffffffffffffffffffffffffffffff1673ffffffffffffffffffffffffffffffffffffffff16815260200190815260200160002060008781526020019081526020016000206000015490506000600460003373ffffffffffffffffffffffffffffffffffffffff1673ffffffffffffffffffffffffffffffffffffffff168152602001908152602001600020600088815260200190815260200160002060010180546109539061463e565b80601f016020809104026020016040519081016040528092919081815260200182805461097f9061463e565b80156109cc5780601f106109a1576101008083540402835291602001916109cc565b820191906000526020600020905b8154815290600101906020018083116109af57829003601f168201915b505050505090506000600460003373ffffffffffffffffffffffffffffffffffffffff1673ffffffffffffffffffffffffffffffffffffffff16815260200190815260200160002060008981526020019081526020016000206002018054610a339061463e565b80601f0160208091040260200160405190810160405280929190818152602001828054610a5f9061463e565b8015610aac5780601f10610a8157610100808354040283529160200191610aac565b820191906000526020600020905b815481529060010190602001808311610a8f57829003601f168201915b505050505090506000600460003373ffffffffffffffffffffffffffffffffffffffff1673ffffffffffffffffffffffffffffffffffffffff16815260200190815260200160002060008a81526020019081526020016000206003018054610b139061463e565b80601f0160208091040260200160405190810160405280929190818152602001828054610b3f9061463e565b8015610b8c5780601f10610b6157610100808354040283529160200191610b8c565b820191906000526020600020905b815481529060010190602001808311610b6f57829003601f168201915b50505050509050828282869750975097509750505050509193509193565b600080600587604051610bbd91906146ac565b908152602001604051809103902086604051610bd991906146ac565b908152602001604051809103902085604051610bf591906146ac565b90815260200160405180910390206000858152602001908152602001600020600801600084815260200190815260200160002060000160009054906101000a900473ffffffffffffffffffffffffffffffffffffffff1690508091505095945050505050565b60026020528060005260406000206000915090508060000160009054906101000a900473ffffffffffffffffffffffffffffffffffffffff1690806001018054610ca49061463e565b80601f0160208091040260200160405190810160405280929190818152602001828054610cd09061463e565b8015610d1d5780601f10610cf257610100808354040283529160200191610d1d565b820191906000526020600020905b815481529060010190602001808311610d0057829003601f168201915b505050505090806002018054610d329061463e565b80601f0160208091040260200160405190810160405280929190818152602001828054610d5e9061463e565b8015610dab5780601f10610d8057610100808354040283529160200191610dab565b820191906000526020600020905b815481529060010190602001808311610d8e57829003601f168201915b505050505090806003018054610dc09061463e565b80601f0160208091040260200160405190810160405280929190818152602001828054610dec9061463e565b8015610e395780601f10610e0e57610100808354040283529160200191610e39565b820191906000526020600020905b815481529060010190602001808311610e1c57829003601f168201915b5050505050905084565b6000600360003373ffffffffffffffffffffffffffffffffffffffff1673ffffffffffffffffffffffffffffffffffffffff16815260200190815260200160002060008381526020019081526020016000206001018054610ea39061463e565b80601f0160208091040260200160405190810160405280929190818152602001828054610ecf9061463e565b8015610f1c5780601f10610ef157610100808354040283529160200191610f1c565b820191906000526020600020905b815481529060010190602001808311610eff57829003601f168201915b505050505090506000600360003373ffffffffffffffffffffffffffffffffffffffff1673ffffffffffffffffffffffffffffffffffffffff16815260200190815260200160002060008481526020019081526020016000206002018054610f839061463e565b80601f0160208091040260200160405190810160405280929190818152602001828054610faf9061463e565b8015610ffc5780601f10610fd157610100808354040283529160200191610ffc565b820191906000526020600020905b815481529060010190602001808311610fdf57829003601f168201915b505050505090506000600360003373ffffffffffffffffffffffffffffffffffffffff1673ffffffffffffffffffffffffffffffffffffffff168152602001908152602001600020600085815260200190815260200160002060030180546110639061463e565b80601f016020809104026020016040519081016040528092919081815260200182805461108f9061463e565b80156110dc5780601f106110b1576101008083540402835291602001916110dc565b820191906000526020600020905b8154815290600101906020018083116110bf57829003601f168201915b505050505090506000600360003373ffffffffffffffffffffffffffffffffffffffff1673ffffffffffffffffffffffffffffffffffffffff16815260200190815260200160002060008681526020019081526020016000206000015490506000151560058560405161114f91906146ac565b90815260200160405180910390208460405161116b91906146ac565b90815260200160405180910390208360405161118791906146ac565b9081526020016040518091039020600083815260200190815260200160002060070160009054906101000a900460ff161515146111f9576040517f08c379a00000000000000000000000000000000000000000000000000000000081526004016111f090614735565b60405180910390fd5b600160058560405161120b91906146ac565b90815260200160405180910390208460405161122791906146ac565b90815260200160405180910390208360405161124391906146ac565b9081526020016040518091039020600083815260200190815260200160002060070160006101000a81548160ff0219169083151502179055505050505050565b6000806000600660003373ffffffffffffffffffffffffffffffffffffffff1673ffffffffffffffffffffffffffffffffffffffff1681526020019081526020016000206006015490506000600660003373ffffffffffffffffffffffffffffffffffffffff1673ffffffffffffffffffffffffffffffffffffffff16815260200190815260200160002060070154905081819350935050509091565b60008060008060008060058a60405161133991906146ac565b90815260200160405180910390208960405161135591906146ac565b90815260200160405180910390208860405161137191906146ac565b9081526020016040518091039020600088815260200190815260200160002060000160009054906101000a900473ffffffffffffffffffffffffffffffffffffffff169050600060058b6040516113c891906146ac565b90815260200160405180910390208a6040516113e491906146ac565b90815260200160405180910390208960405161140091906146ac565b90815260200160405180910390206000898152602001908152602001600020600201549050600060058c60405161143791906146ac565b90815260200160405180910390208b60405161145391906146ac565b90815260200160405180910390208a60405161146f91906146ac565b908152602001604051809103902060008a8152602001908152602001600020600401549050600060058d6040516114a691906146ac565b90815260200160405180910390208c6040516114c291906146ac565b90815260200160405180910390208b6040516114de91906146ac565b908152602001604051809103902060008b8152602001908152602001600020600601549050600060058e60405161151591906146ac565b90815260200160405180910390208d60405161153191906146ac565b90815260200160405180910390208c60405161154d91906146ac565b908152602001604051809103902060008c8152602001908152602001600020600a015490508484848484995099509950995099505050505050945094509450945094565b3373ffffffffffffffffffffffffffffffffffffffff16600260003373ffffffffffffffffffffffffffffffffffffffff1673ffffffffffffffffffffffffffffffffffffffff16815260200190815260200160002060000160009054906101000a900473ffffffffffffffffffffffffffffffffffffffff1673ffffffffffffffffffffffffffffffffffffffff1614611661576040517f08c379a0000000000000000000000000000000000000000000000000000000008152600401611658906147a1565b60405180910390fd5b8760405160200161167291906146ac565b60405160208183030381529060405280519060200120600260003373ffffffffffffffffffffffffffffffffffffffff1673ffffffffffffffffffffffffffffffffffffffff1681526020019081526020016000206003016040516020016116da9190614855565b6040516020818303038152906040528051906020012014801561178957508660405160200161170991906146ac565b60405160208183030381529060405280519060200120600260003373ffffffffffffffffffffffffffffffffffffffff1673ffffffffffffffffffffffffffffffffffffffff1681526020019081526020016000206002016040516020016117719190614855565b60405160208183030381529060405280519060200120145b80156118215750856040516020016117a191906146ac565b60405160208183030381529060405280519060200120600260003373ffffffffffffffffffffffffffffffffffffffff1673ffffffffffffffffffffffffffffffffffffffff1681526020019081526020016000206001016040516020016118099190614855565b60405160208183030381529060405280519060200120145b611860576040517f08c379a0000000000000000000000000000000000000000000000000000000008152600401611857906148de565b60405180910390fd5b6000151560058960405161187491906146ac565b90815260200160405180910390208860405161189091906146ac565b9081526020016040518091039020876040516118ac91906146ac565b9081526020016040518091039020600086815260200190815260200160002060050160009054906101000a900460ff1615151461191e576040517f08c379a00000000000000000000000000000000000000000000000000000000081526004016119159061494a565b60405180910390fd5b600060058960405161193091906146ac565b90815260200160405180910390208860405161194c91906146ac565b90815260200160405180910390208760405161196891906146ac565b9081526020016040518091039020600086815260200190815260200160002090506000600360008673ffffffffffffffffffffffffffffffffffffffff1673ffffffffffffffffffffffffffffffffffffffff1681526020019081526020016000206000600660008873ffffffffffffffffffffffffffffffffffffffff1673ffffffffffffffffffffffffffffffffffffffff1681526020019081526020016000206006015481526020019081526020016000209050848260000160006101000a81548173ffffffffffffffffffffffffffffffffffffffff021916908373ffffffffffffffffffffffffffffffffffffffff160217905550338260010160006101000a81548173ffffffffffffffffffffffffffffffffffffffff021916908373ffffffffffffffffffffffffffffffffffffffff160217905550868260020181905550858260030181905550600660008673ffffffffffffffffffffffffffffffffffffffff1673ffffffffffffffffffffffffffffffffffffffff16815260200190815260200160002060060154826004018190555060018260050160006101000a81548160ff02191690831515021790555083826006018190555060008260070160006101000a81548160ff0219169083151502179055508282600a018190555085816000018190555089816001019080519060200190611b6f929190613971565b5088816002019080519060200190611b88929190613971565b5087816003019080519060200190611ba1929190613971565b50600660008673ffffffffffffffffffffffffffffffffffffffff1673ffffffffffffffffffffffffffffffffffffffff1681526020019081526020016000206006016000815480929190611bf5906145c6565b919050555050505050505050505050565b6060806060600080600360003373ffffffffffffffffffffffffffffffffffffffff1673ffffffffffffffffffffffffffffffffffffffff16815260200190815260200160002060008781526020019081526020016000206000015490506000600360003373ffffffffffffffffffffffffffffffffffffffff1673ffffffffffffffffffffffffffffffffffffffff16815260200190815260200160002060008881526020019081526020016000206001018054611cc49061463e565b80601f0160208091040260200160405190810160405280929190818152602001828054611cf09061463e565b8015611d3d5780601f10611d1257610100808354040283529160200191611d3d565b820191906000526020600020905b815481529060010190602001808311611d2057829003601f168201915b505050505090506000600360003373ffffffffffffffffffffffffffffffffffffffff1673ffffffffffffffffffffffffffffffffffffffff16815260200190815260200160002060008981526020019081526020016000206002018054611da49061463e565b80601f0160208091040260200160405190810160405280929190818152602001828054611dd09061463e565b8015611e1d5780601f10611df257610100808354040283529160200191611e1d565b820191906000526020600020905b815481529060010190602001808311611e0057829003601f168201915b505050505090506000600360003373ffffffffffffffffffffffffffffffffffffffff1673ffffffffffffffffffffffffffffffffffffffff16815260200190815260200160002060008a81526020019081526020016000206003018054611e849061463e565b80601f0160208091040260200160405190810160405280929190818152602001828054611eb09061463e565b8015611efd5780601f10611ed257610100808354040283529160200191611efd565b820191906000526020600020905b815481529060010190602001808311611ee057829003601f168201915b50505050509050828282869750975097509750505050509193509193565b6060806060600060606000600660003373ffffffffffffffffffffffffffffffffffffffff1673ffffffffffffffffffffffffffffffffffffffff1681526020019081526020016000206001018054611f739061463e565b80601f0160208091040260200160405190810160405280929190818152602001828054611f9f9061463e565b8015611fec5780601f10611fc157610100808354040283529160200191611fec565b820191906000526020600020905b815481529060010190602001808311611fcf57829003601f168201915b505050505090506000600660003373ffffffffffffffffffffffffffffffffffffffff1673ffffffffffffffffffffffffffffffffffffffff16815260200190815260200160002060020180546120429061463e565b80601f016020809104026020016040519081016040528092919081815260200182805461206e9061463e565b80156120bb5780601f10612090576101008083540402835291602001916120bb565b820191906000526020600020905b81548152906001019060200180831161209e57829003601f168201915b505050505090506000600660003373ffffffffffffffffffffffffffffffffffffffff1673ffffffffffffffffffffffffffffffffffffffff16815260200190815260200160002060030180546121119061463e565b80601f016020809104026020016040519081016040528092919081815260200182805461213d9061463e565b801561218a5780601f1061215f5761010080835404028352916020019161218a565b820191906000526020600020905b81548152906001019060200180831161216d57829003601f168201915b505050505090506000600660003373ffffffffffffffffffffffffffffffffffffffff1673ffffffffffffffffffffffffffffffffffffffff1681526020019081526020016000206004015490506000600660003373ffffffffffffffffffffffffffffffffffffffff1673ffffffffffffffffffffffffffffffffffffffff16815260200190815260200160002060050180546122279061463e565b80601f01602080910402602001604051908101604052809291908181526020018280546122539061463e565b80156122a05780601f10612275576101008083540402835291602001916122a0565b820191906000526020600020905b81548152906001019060200180831161228357829003601f168201915b5050505050905084848484849950995099509950995050505050509091929394565b60006005856040516122d491906146ac565b9081526020016040518091039020846040516122f091906146ac565b90815260200160405180910390208360405161230c91906146ac565b908152602001604051809103902060008381526020019081526020016000209050600115158160070160009054906101000a900460ff16151514612385576040517f08c379a000000000000000000000000000000000000000000000000000000000815260040161237c906149dc565b60405180910390fd5b6000816009015490503382600801600083815260200190815260200160002060000160006101000a81548173ffffffffffffffffffffffffffffffffffffffff021916908373ffffffffffffffffffffffffffffffffffffffff160217905550600660003373ffffffffffffffffffffffffffffffffffffffff1673ffffffffffffffffffffffffffffffffffffffff1681526020019081526020016000206007015482600801600083815260200190815260200160002060010181905550816009016000815480929190612459906145c6565b91905055506000600460003373ffffffffffffffffffffffffffffffffffffffff1673ffffffffffffffffffffffffffffffffffffffff1681526020019081526020016000206000600660003373ffffffffffffffffffffffffffffffffffffffff1673ffffffffffffffffffffffffffffffffffffffff168152602001908152602001600020600701548152602001908152602001600020905083816000018190555086816001019080519060200190612515929190613971565b508581600201908051906020019061252e929190613971565b5084816003019080519060200190612547929190613971565b50600660003373ffffffffffffffffffffffffffffffffffffffff1673ffffffffffffffffffffffffffffffffffffffff168152602001908152602001600020600701600081548092919061259b906145c6565b919050555050505050505050565b6000806005866040516125bc91906146ac565b9081526020016040518091039020856040516125d891906146ac565b9081526020016040518091039020846040516125f491906146ac565b9081526020016040518091039020600084815260200190815260200160002060070160009054906101000a900460ff16905080915050949350505050565b60003373ffffffffffffffffffffffffffffffffffffffff16600260003373ffffffffffffffffffffffffffffffffffffffff1673ffffffffffffffffffffffffffffffffffffffff16815260200190815260200160002060000160009054906101000a900473ffffffffffffffffffffffffffffffffffffffff1673ffffffffffffffffffffffffffffffffffffffff1614156126d357600190506126d8565b600090505b90565b6000600660003373ffffffffffffffffffffffffffffffffffffffff1673ffffffffffffffffffffffffffffffffffffffff168152602001908152602001600020905085816001019080519060200190612736929190613971565b508481600201908051906020019061274f929190613971565b5083816003019080519060200190612768929190613971565b508281600401819055508181600501908051906020019061278a929190613971565b50505050505050565b60058480516020810182018051848252602083016020850120818352809550505050505083805160208101820180518482526020830160208501208183528095505050505050828051602081018201805184825260208301602085012081835280955050505050506020528060005260406000206000935093505050508060000160009054906101000a900473ffffffffffffffffffffffffffffffffffffffff16908060010160009054906101000a900473ffffffffffffffffffffffffffffffffffffffff16908060020154908060030154908060040154908060050160009054906101000a900460ff16908060060154908060070160009054906101000a900460ff169080600901549080600a015490508a565b60008060006005876040516128bf91906146ac565b9081526020016040518091039020866040516128db91906146ac565b9081526020016040518091039020856040516128f791906146ac565b90815260200160405180910390206000858152602001908152602001600020600901549050600060058860405161292e91906146ac565b90815260200160405180910390208760405161294a91906146ac565b90815260200160405180910390208660405161296691906146ac565b90815260200160405180910390206000868152602001908152602001600020600201549050818193509350505094509492505050565b6003602052816000526040600020602052806000526040600020600091509150508060000154908060010180546129d29061463e565b80601f01602080910402602001604051908101604052809291908181526020018280546129fe9061463e565b8015612a4b5780601f10612a2057610100808354040283529160200191612a4b565b820191906000526020600020905b815481529060010190602001808311612a2e57829003601f168201915b505050505090806002018054612a609061463e565b80601f0160208091040260200160405190810160405280929190818152602001828054612a8c9061463e565b8015612ad95780601f10612aae57610100808354040283529160200191612ad9565b820191906000526020600020905b815481529060010190602001808311612abc57829003601f168201915b505050505090806003018054612aee9061463e565b80601f0160208091040260200160405190810160405280929190818152602001828054612b1a9061463e565b8015612b675780601f10612b3c57610100808354040283529160200191612b67565b820191906000526020600020905b815481529060010190602001808311612b4a57829003601f168201915b5050505050905084565b6000600360003373ffffffffffffffffffffffffffffffffffffffff1673ffffffffffffffffffffffffffffffffffffffff16815260200190815260200160002060008481526020019081526020016000206000015490506000600360003373ffffffffffffffffffffffffffffffffffffffff1673ffffffffffffffffffffffffffffffffffffffff16815260200190815260200160002060008581526020019081526020016000206001018054612c299061463e565b80601f0160208091040260200160405190810160405280929190818152602001828054612c559061463e565b8015612ca25780601f10612c7757610100808354040283529160200191612ca2565b820191906000526020600020905b815481529060010190602001808311612c8557829003601f168201915b505050505090506000600360003373ffffffffffffffffffffffffffffffffffffffff1673ffffffffffffffffffffffffffffffffffffffff16815260200190815260200160002060008681526020019081526020016000206002018054612d099061463e565b80601f0160208091040260200160405190810160405280929190818152602001828054612d359061463e565b8015612d825780601f10612d5757610100808354040283529160200191612d82565b820191906000526020600020905b815481529060010190602001808311612d6557829003601f168201915b505050505090506000600360003373ffffffffffffffffffffffffffffffffffffffff1673ffffffffffffffffffffffffffffffffffffffff16815260200190815260200160002060008781526020019081526020016000206003018054612de99061463e565b80601f0160208091040260200160405190810160405280929190818152602001828054612e159061463e565b8015612e625780601f10612e3757610100808354040283529160200191612e62565b820191906000526020600020905b815481529060010190602001808311612e4557829003601f168201915b505050505090506000600584604051612e7b91906146ac565b908152602001604051809103902083604051612e9791906146ac565b908152602001604051809103902082604051612eb391906146ac565b90815260200160405180910390206000868152602001908152602001600020600801600087815260200190815260200160002060000160009054906101000a900473ffffffffffffffffffffffffffffffffffffffff1690506000600585604051612f1e91906146ac565b908152602001604051809103902084604051612f3a91906146ac565b908152602001604051809103902083604051612f5691906146ac565b9081526020016040518091039020600087815260200190815260200160002060080160008881526020019081526020016000206001015490506000600586604051612fa191906146ac565b908152602001604051809103902085604051612fbd91906146ac565b908152602001604051809103902084604051612fd991906146ac565b9081526020016040518091039020600088815260200190815260200160002060090154905060005b8181101561327c57600060058860405161301b91906146ac565b90815260200160405180910390208760405161303791906146ac565b90815260200160405180910390208660405161305391906146ac565b908152602001604051809103902060008a8152602001908152602001600020600801600083815260200190815260200160002060000160009054906101000a900473ffffffffffffffffffffffffffffffffffffffff16905060006005896040516130be91906146ac565b9081526020016040518091039020886040516130da91906146ac565b9081526020016040518091039020876040516130f691906146ac565b908152602001604051809103902060008b81526020019081526020016000206008016000848152602001908152602001600020600101549050600460008373ffffffffffffffffffffffffffffffffffffffff1673ffffffffffffffffffffffffffffffffffffffff168152602001908152602001600020600082815260200190815260200160002060008082016000905560018201600061319891906139f7565b6002820160006131a891906139f7565b6003820160006131b891906139f7565b50506005896040516131ca91906146ac565b9081526020016040518091039020886040516131e691906146ac565b90815260200160405180910390208760405161320291906146ac565b908152602001604051809103902060008b81526020019081526020016000206008016000848152602001908152602001600020600080820160006101000a81549073ffffffffffffffffffffffffffffffffffffffff02191690556001820160009055505050508080613274906145c6565b915050613001565b508260058760405161328e91906146ac565b9081526020016040518091039020866040516132aa91906146ac565b9081526020016040518091039020856040516132c691906146ac565b9081526020016040518091039020600089815260200190815260200160002060000160006101000a81548173ffffffffffffffffffffffffffffffffffffffff021916908373ffffffffffffffffffffffffffffffffffffffff160217905550600060058760405161333891906146ac565b90815260200160405180910390208660405161335491906146ac565b90815260200160405180910390208560405161337091906146ac565b9081526020016040518091039020600089815260200190815260200160002060070160006101000a81548160ff02191690831515021790555060006005876040516133bb91906146ac565b9081526020016040518091039020866040516133d791906146ac565b9081526020016040518091039020856040516133f391906146ac565b9081526020016040518091039020600089815260200190815260200160002060090181905550600360003373ffffffffffffffffffffffffffffffffffffffff1673ffffffffffffffffffffffffffffffffffffffff16815260200190815260200160002060008a815260200190815260200160002060008082016000905560018201600061348291906139f7565b60028201600061349291906139f7565b6003820160006134a291906139f7565b50506000600660008573ffffffffffffffffffffffffffffffffffffffff1673ffffffffffffffffffffffffffffffffffffffff1681526020019081526020016000206006015490506000600360008673ffffffffffffffffffffffffffffffffffffffff1673ffffffffffffffffffffffffffffffffffffffff1681526020019081526020016000206000838152602001908152602001600020905088816000018190555087816001019080519060200190613560929190613971565b5086816002019080519060200190613579929190613971565b5085816003019080519060200190613592929190613971565b50816005896040516135a491906146ac565b9081526020016040518091039020886040516135c091906146ac565b9081526020016040518091039020876040516135dc91906146ac565b908152602001604051809103902060008b815260200190815260200160002060040181905550600660008673ffffffffffffffffffffffffffffffffffffffff1673ffffffffffffffffffffffffffffffffffffffff1681526020019081526020016000206006016000815480929190613655906145c6565b91905055505050505050505050505050565b60008060058660405161367a91906146ac565b90815260200160405180910390208560405161369691906146ac565b9081526020016040518091039020846040516136b291906146ac565b90815260200160405180910390206000848152602001908152602001600020905060008160090154905060008114156136f05760009250505061378e565b60005b81811015613786573373ffffffffffffffffffffffffffffffffffffffff1683600801600083815260200190815260200160002060000160009054906101000a900473ffffffffffffffffffffffffffffffffffffffff1673ffffffffffffffffffffffffffffffffffffffff161415613773576001935050505061378e565b808061377e906145c6565b9150506136f3565b506000925050505b949350505050565b60015481565b6004602052816000526040600020602052806000526040600020600091509150508060000154908060010180546137d29061463e565b80601f01602080910402602001604051908101604052809291908181526020018280546137fe9061463e565b801561384b5780601f106138205761010080835404028352916020019161384b565b820191906000526020600020905b81548152906001019060200180831161382e57829003601f168201915b5050505050908060020180546138609061463e565b80601f016020809104026020016040519081016040528092919081815260200182805461388c9061463e565b80156138d95780601f106138ae576101008083540402835291602001916138d9565b820191906000526020600020905b8154815290600101906020018083116138bc57829003601f168201915b5050505050908060030180546138ee9061463e565b80601f016020809104026020016040519081016040528092919081815260200182805461391a9061463e565b80156139675780601f1061393c57610100808354040283529160200191613967565b820191906000526020600020905b81548152906001019060200180831161394a57829003601f168201915b5050505050905084565b82805461397d9061463e565b90600052602060002090601f01602090048101928261399f57600085556139e6565b82601f106139b857805160ff19168380011785556139e6565b828001600101855582156139e6579182015b828111156139e55782518255916020019190600101906139ca565b5b5090506139f39190613a37565b5090565b508054613a039061463e565b6000825580601f10613a155750613a34565b601f016020900490600052602060002090810190613a339190613a37565b5b50565b5b80821115613a50576000816000905550600101613a38565b5090565b6000604051905090565b600080fd5b600080fd5b600073ffffffffffffffffffffffffffffffffffffffff82169050919050565b6000613a9382613a68565b9050919050565b613aa381613a88565b8114613aae57600080fd5b50565b600081359050613ac081613a9a565b92915050565b600080fd5b600080fd5b6000601f19601f8301169050919050565b7f4e487b7100000000000000000000000000000000000000000000000000000000600052604160045260246000fd5b613b1982613ad0565b810181811067ffffffffffffffff82111715613b3857613b37613ae1565b5b80604052505050565b6000613b4b613a54565b9050613b578282613b10565b919050565b600067ffffffffffffffff821115613b7757613b76613ae1565b5b613b8082613ad0565b9050602081019050919050565b82818337600083830152505050565b6000613baf613baa84613b5c565b613b41565b905082815260208101848484011115613bcb57613bca613acb565b5b613bd6848285613b8d565b509392505050565b600082601f830112613bf357613bf2613ac6565b5b8135613c03848260208601613b9c565b91505092915050565b60008060008060808587031215613c2657613c25613a5e565b5b6000613c3487828801613ab1565b945050602085013567ffffffffffffffff811115613c5557613c54613a63565b5b613c6187828801613bde565b935050604085013567ffffffffffffffff811115613c8257613c81613a63565b5b613c8e87828801613bde565b925050606085013567ffffffffffffffff811115613caf57613cae613a63565b5b613cbb87828801613bde565b91505092959194509250565b600060208284031215613cdd57613cdc613a5e565b5b6000613ceb84828501613ab1565b91505092915050565b613cfd81613a88565b82525050565b600081519050919050565b600082825260208201905092915050565b60005b83811015613d3d578082015181840152602081019050613d22565b83811115613d4c576000848401525b50505050565b6000613d5d82613d03565b613d678185613d0e565b9350613d77818560208601613d1f565b613d8081613ad0565b840191505092915050565b6000819050919050565b613d9e81613d8b565b82525050565b600061010082019050613dba600083018b613cf4565b8181036020830152613dcc818a613d52565b90508181036040830152613de08189613d52565b90508181036060830152613df48188613d52565b9050613e036080830187613d95565b81810360a0830152613e158186613d52565b9050613e2460c0830185613d95565b613e3160e0830184613d95565b9998505050505050505050565b6000602082019050613e536000830184613cf4565b92915050565b613e6281613d8b565b8114613e6d57600080fd5b50565b600081359050613e7f81613e59565b92915050565b600060208284031215613e9b57613e9a613a5e565b5b6000613ea984828501613e70565b91505092915050565b60006080820190508181036000830152613ecc8187613d52565b90508181036020830152613ee08186613d52565b90508181036040830152613ef48185613d52565b9050613f036060830184613d95565b95945050505050565b600080600080600060a08688031215613f2857613f27613a5e565b5b600086013567ffffffffffffffff811115613f4657613f45613a63565b5b613f5288828901613bde565b955050602086013567ffffffffffffffff811115613f7357613f72613a63565b5b613f7f88828901613bde565b945050604086013567ffffffffffffffff811115613fa057613f9f613a63565b5b613fac88828901613bde565b9350506060613fbd88828901613e70565b9250506080613fce88828901613e70565b9150509295509295909350565b6000608082019050613ff06000830187613cf4565b81810360208301526140028186613d52565b905081810360408301526140168185613d52565b9050818103606083015261402a8184613d52565b905095945050505050565b600060408201905061404a6000830185613d95565b6140576020830184613d95565b9392505050565b6000806000806080858703121561407857614077613a5e565b5b600085013567ffffffffffffffff81111561409657614095613a63565b5b6140a287828801613bde565b945050602085013567ffffffffffffffff8111156140c3576140c2613a63565b5b6140cf87828801613bde565b935050604085013567ffffffffffffffff8111156140f0576140ef613a63565b5b6140fc87828801613bde565b925050606061410d87828801613e70565b91505092959194509250565b600060a08201905061412e6000830188613cf4565b61413b6020830187613d95565b6141486040830186613d95565b6141556060830185613d95565b6141626080830184613d95565b9695505050505050565b600080600080600080600080610100898b03121561418d5761418c613a5e565b5b600089013567ffffffffffffffff8111156141ab576141aa613a63565b5b6141b78b828c01613bde565b985050602089013567ffffffffffffffff8111156141d8576141d7613a63565b5b6141e48b828c01613bde565b975050604089013567ffffffffffffffff81111561420557614204613a63565b5b6142118b828c01613bde565b96505060606142228b828c01613e70565b95505060806142338b828c01613e70565b94505060a06142448b828c01613ab1565b93505060c06142558b828c01613e70565b92505060e06142668b828c01613e70565b9150509295985092959890939650565b600060a08201905081810360008301526142908188613d52565b905081810360208301526142a48187613d52565b905081810360408301526142b88186613d52565b90506142c76060830185613d95565b81810360808301526142d98184613d52565b90509695505050505050565b60008115159050919050565b6142fa816142e5565b82525050565b600060208201905061431560008301846142f1565b92915050565b600080600080600060a0868803121561433757614336613a5e565b5b600086013567ffffffffffffffff81111561435557614354613a63565b5b61436188828901613bde565b955050602086013567ffffffffffffffff81111561438257614381613a63565b5b61438e88828901613bde565b945050604086013567ffffffffffffffff8111156143af576143ae613a63565b5b6143bb88828901613bde565b93505060606143cc88828901613e70565b925050608086013567ffffffffffffffff8111156143ed576143ec613a63565b5b6143f988828901613bde565b9150509295509295909350565b60006101408201905061441c600083018d613cf4565b614429602083018c613cf4565b614436604083018b613d95565b614443606083018a613d95565b6144506080830189613d95565b61445d60a08301886142f1565b61446a60c0830187613d95565b61447760e08301866142f1565b614485610100830185613d95565b614493610120830184613d95565b9b9a5050505050505050505050565b600080604083850312156144b9576144b8613a5e565b5b60006144c785828601613ab1565b92505060206144d885828601613e70565b9150509250929050565b60006080820190506144f76000830187613d95565b81810360208301526145098186613d52565b9050818103604083015261451d8185613d52565b905081810360608301526145318184613d52565b905095945050505050565b6000806040838503121561455357614552613a5e565b5b600061456185828601613e70565b925050602061457285828601613e70565b9150509250929050565b60006020820190506145916000830184613d95565b92915050565b7f4e487b7100000000000000000000000000000000000000000000000000000000600052601160045260246000fd5b60006145d182613d8b565b91507fffffffffffffffffffffffffffffffffffffffffffffffffffffffffffffffff82141561460457614603614597565b5b600182019050919050565b7f4e487b7100000000000000000000000000000000000000000000000000000000600052602260045260246000fd5b6000600282049050600182168061465657607f821691505b6020821081141561466a5761466961460f565b5b50919050565b600081905092915050565b600061468682613d03565b6146908185614670565b93506146a0818560208601613d1f565b80840191505092915050565b60006146b8828461467b565b915081905092915050565b7f50726f706572747920616c7265616479206d61726b656420617661696c61626c60008201527f6500000000000000000000000000000000000000000000000000000000000000602082015250565b600061471f602183613d0e565b915061472a826146c3565b604082019050919050565b6000602082019050818103600083015261474e81614712565b9050919050565b7f4f6e6c792061646d696e2063616e20526567697374657220686f757365000000600082015250565b600061478b601d83613d0e565b915061479682614755565b602082019050919050565b600060208201905081810360008301526147ba8161477e565b9050919050565b60008190508160005260206000209050919050565b600081546147e38161463e565b6147ed8186614670565b9450600182166000811461480857600181146148195761484c565b60ff1983168652818601935061484c565b614822856147c1565b60005b8381101561484457815481890152600182019150602081019050614825565b838801955050505b50505092915050565b600061486182846147d6565b915081905092915050565b7f41646d696e2063616e206f6e6c7920726567697374657220686f757365206f6660008201527f2073616d6520636974792e000000000000000000000000000000000000000000602082015250565b60006148c8602b83613d0e565b91506148d38261486c565b604082019050919050565b600060208201905081810360008301526148f7816148bb565b9050919050565b7f44656564204e756d62657220616c726561647920726567697374657265642100600082015250565b6000614934601f83613d0e565b915061493f826148fe565b602082019050919050565b6000602082019050818103600083015261496381614927565b9050919050565b7f546869732070726f7065727479206973204e4f54206d61726b656420666f722060008201527f73616c6521000000000000000000000000000000000000000000000000000000602082015250565b60006149c6602583613d0e565b91506149d18261496a565b604082019050919050565b600060208201905081810360008301526149f5816149b9565b905091905056fea264697066735822122098a179250083e7f1331a625258cb13ab7b3f4b8743f6ec7674e85f3330493aa764736f6c63430008090033",
  "immutableReferences": {},
  "source": "// SPDX-License-Identifier: MIT\npragma solidity >= 0.5.0 < 0.9.0;\n\ncontract Registry{\n\n    address public superAdmin;\n    uint public totalAdmins;\n    \n    struct Admin{\n        address adminAddress;\n        string city;\n        string sub_county;\n        string county;\n    }\n\n    struct HouseDetails{\n        address owner;\n        address admin;\n        uint256 propertyId;\n        uint deedNumber;\n        uint index;\n        bool registered;\n        uint marketValue;\n        bool markAvailable;\n        mapping(uint => RequestDetails) requests; // reqNo => RequestDetails\n        uint noOfRequests;  // other users requested to this house\n        uint sqft;\n    }\n\n    struct UserProfile{\n        address userAddr;\n        string fullName;\n        string gender;\n        string email;\n        uint256 contact;\n        string residentialAddr;\n        uint totalIndices;\n        uint requestIndices;  // this user requested to other houses\n    }\n\n    struct OwnerOwns{\n        uint deedNumber;\n        string county;\n        string sub_county;\n        string city;\n    }\n    \n    struct RequestedHouses{\n        uint deedNumber;\n        string county;\n        string sub_county;\n        string city;\n    }\n\n    struct RequestDetails{\n        address whoRequested;\n        uint reqIndex;\n    }\n\n    mapping(address => Admin) public admins;\n    mapping(address => mapping(uint => OwnerOwns)) public ownerMapsProperty;  // ownerAddr => index no. => OwnerOwns \n    mapping(address => mapping(uint => RequestedHouses)) public requestedHouses;  // ownerAddr => reqIndex => RequestedHouses\n    mapping(string => mapping(string => mapping(string => mapping(uint => HouseDetails)))) public houseDetalsMap; // county => sub_county => city => deedNo => HouseDetails\n    mapping(address => UserProfile) public userProfile;\n    \n\n    constructor(){\n        superAdmin = msg.sender;\n    }\n\n    modifier onlyAdmin(){\n        require(admins[msg.sender].adminAddress == msg.sender, \"Only admin can Register house\");\n        _;\n    }\n\n\n    // SuperAdmin: Registers new admin\n    function addAdmin(address _adminAddr, string memory _county, string memory _district, string memory _city) external{\n        Admin storage newAdmin = admins[_adminAddr];\n        totalAdmins++;\n\n        newAdmin.adminAddress = _adminAddr;\n        newAdmin.city = _city;\n        newAdmin.sub_county = _district;\n        newAdmin.county = _county;\n    }\n\n\n    // check if it is admin\n    function isAdmin() external view returns(bool){\n        if(admins[msg.sender].adminAddress == msg.sender){\n            return true;\n        }\n        else return false;\n    }\n\n\n    // Admin: registers house\n    function registerHouse(string memory _county, string memory _district, string memory _city, uint256 _propertyId, uint _deedNo, address _owner, uint _marketValue, uint _sqft) external onlyAdmin{\n        \n        require(keccak256(abi.encodePacked(admins[msg.sender].county)) == keccak256(abi.encodePacked(_county))  \n        && keccak256(abi.encodePacked(admins[msg.sender].sub_county)) == keccak256(abi.encodePacked(_district))\n        && keccak256(abi.encodePacked(admins[msg.sender].city)) == keccak256(abi.encodePacked(_city)), \"Admin can only register house of same city.\");\n\n        require(houseDetalsMap[_county][_district][_city][_deedNo].registered == false, \"Deed Number already registered!\");\n\n        HouseDetails storage newHouseRegistry = houseDetalsMap[_county][_district][_city][_deedNo];\n        OwnerOwns storage newOwnerOwns = ownerMapsProperty[_owner][userProfile[_owner].totalIndices];\n        \n\n        newHouseRegistry.owner = _owner;\n        newHouseRegistry.admin = msg.sender;\n        newHouseRegistry.propertyId = _propertyId;\n        newHouseRegistry.deedNumber = _deedNo;\n        newHouseRegistry.index = userProfile[_owner].totalIndices;\n        newHouseRegistry.registered = true;\n        newHouseRegistry.marketValue = _marketValue;\n        newHouseRegistry.markAvailable = false;\n        newHouseRegistry.sqft = _sqft;\n\n        newOwnerOwns.deedNumber = _deedNo;\n        newOwnerOwns.county = _county;\n        newOwnerOwns.sub_county = _district;\n        newOwnerOwns.city = _city;\n\n        userProfile[_owner].totalIndices++;\n    }\n\n\n    // User_1: set user profile\n    function setUserProfile(string memory _fullName, string memory _gender, string memory _email, uint256 _contact, string memory _residentialAddr) external{\n        \n        UserProfile storage newUserProfile = userProfile[msg.sender];\n\n        newUserProfile.fullName = _fullName;\n        newUserProfile.gender = _gender;\n        newUserProfile.email = _email;\n        newUserProfile.contact = _contact;\n        newUserProfile.residentialAddr = _residentialAddr;\n    }\n\n\n    // User_1: mark property available\n    function markMyPropertyAvailable(uint indexNo) external {\n        \n        string memory county = ownerMapsProperty[msg.sender][indexNo].county;\n        string memory sub_county = ownerMapsProperty[msg.sender][indexNo].sub_county;\n        string memory city = ownerMapsProperty[msg.sender][indexNo].city;\n        uint deedNumber = ownerMapsProperty[msg.sender][indexNo].deedNumber;\n\n        require(houseDetalsMap[county][sub_county][city][deedNumber].markAvailable == false, \"Property already marked available\");\n\n        houseDetalsMap[county][sub_county][city][deedNumber].markAvailable = true;\n    \n    }\n\n\n    // User_2: Request for buy  **ownerAddress & index = arguements** \n    function RequestForBuy(string memory _county, string memory _district, string memory _city, uint _deedNo) external{\n\n        HouseDetails storage thisHouseDetail = houseDetalsMap[_county][_district][_city][_deedNo];\n        require(thisHouseDetail.markAvailable == true, \"This property is NOT marked for sale!\");\n\n        uint req_serialNum = thisHouseDetail.noOfRequests; \n        thisHouseDetail.requests[req_serialNum].whoRequested = msg.sender;\n        thisHouseDetail.requests[req_serialNum].reqIndex = userProfile[msg.sender].requestIndices;\n        thisHouseDetail.noOfRequests++;\n\n        // adding requested house to user_2 profile\n        RequestedHouses storage newReqestedHouses = requestedHouses[msg.sender][userProfile[msg.sender].requestIndices];\n        newReqestedHouses.deedNumber = _deedNo;\n        newReqestedHouses.county = _county;\n        newReqestedHouses.sub_county = _district;\n        newReqestedHouses.city = _city;\n\n        userProfile[msg.sender].requestIndices++;\n\n    }\n\n\n    // User_1: Accept the buy request; sell.\n    function AcceptRequest(uint _index, uint _reqNo) external{\n\n        uint _deedNo = ownerMapsProperty[msg.sender][_index].deedNumber;\n        string memory _county = ownerMapsProperty[msg.sender][_index].county; \n        string memory _district = ownerMapsProperty[msg.sender][_index].sub_county;\n        string memory _city = ownerMapsProperty[msg.sender][_index].city;\n        \n        // updating HouseDetails\n        address newOwner = houseDetalsMap[_county][_district][_city][_deedNo].requests[_reqNo].whoRequested;\n        uint newOwner_reqIndex = houseDetalsMap[_county][_district][_city][_deedNo].requests[_reqNo].reqIndex;\n        uint noOfReq = houseDetalsMap[_county][_district][_city][_deedNo].noOfRequests;\n\n        // deleting requested house from all requesters AND removing all incoming requests\n        for(uint i=0; i<noOfReq; i++){\n            address requesterAddr = houseDetalsMap[_county][_district][_city][_deedNo].requests[i].whoRequested;\n            uint requester_reqIndx = houseDetalsMap[_county][_district][_city][_deedNo].requests[i].reqIndex;\n            \n            delete requestedHouses[requesterAddr][requester_reqIndx];\n            delete houseDetalsMap[_county][_district][_city][_deedNo].requests[i];\n        }\n\n        houseDetalsMap[_county][_district][_city][_deedNo].owner = newOwner;\n        houseDetalsMap[_county][_district][_city][_deedNo].markAvailable = false;\n        houseDetalsMap[_county][_district][_city][_deedNo].noOfRequests = 0;\n\n        // deleting property from user_1's ownerMapsProperty \n        delete ownerMapsProperty[msg.sender][_index];\n\n        // adding ownerMapsProperty for newOwner\n        uint newOwnerTotProp = userProfile[newOwner].totalIndices;\n        OwnerOwns storage newOwnerOwns = ownerMapsProperty[newOwner][newOwnerTotProp];\n       \n        newOwnerOwns.deedNumber = _deedNo;\n        newOwnerOwns.county = _county;\n        newOwnerOwns.sub_county = _district;\n        newOwnerOwns.city = _city;\n\n        houseDetalsMap[_county][_district][_city][_deedNo].index = newOwnerTotProp;\n\n        userProfile[newOwner].totalIndices++;\n\n    }\n\n\n    \n    //******* GETTERS **********\n\n    // return house details \n    function getHouseDetails(string memory _county, string memory _district, string memory _city, uint _deedNo) external view returns(address, uint256, uint, uint, uint){\n        \n        address owner = houseDetalsMap[_county][_district][_city][_deedNo].owner;\n        uint256 propertyid = houseDetalsMap[_county][_district][_city][_deedNo].propertyId;\n        uint indx = houseDetalsMap[_county][_district][_city][_deedNo].index;\n        uint mv = houseDetalsMap[_county][_district][_city][_deedNo].marketValue;\n        uint sqft = houseDetalsMap[_county][_district][_city][_deedNo].sqft;\n\n        return(owner, propertyid, indx, mv, sqft);\n    }\n\n    function getRequestCnt_propId(string memory _county, string memory _district, string memory _city, uint _deedNo) external view returns(uint, uint256){\n        uint _noOfRequests = houseDetalsMap[_county][_district][_city][_deedNo].noOfRequests;\n        uint256 _propertyId = houseDetalsMap[_county][_district][_city][_deedNo].propertyId;\n        return(_noOfRequests, _propertyId);\n    }\n\n    function getRequesterDetail(string memory _county, string memory _district, string memory _city, uint _deedNo, uint _reqIndex) external view returns(address){\n        address requester = houseDetalsMap[_county][_district][_city][_deedNo].requests[_reqIndex].whoRequested;\n        return(requester);\n    }\n\n    function isAvailable(string memory _county, string memory _district, string memory _city, uint _deedNo) external view returns(bool){\n        bool available = houseDetalsMap[_county][_district][_city][_deedNo].markAvailable;\n        return(available);\n    }\n\n    function getOwnerOwns(uint indx) external view returns(string memory, string memory, string memory, uint){\n        \n        uint deedNo = ownerMapsProperty[msg.sender][indx].deedNumber;\n        string memory county = ownerMapsProperty[msg.sender][indx].county;\n        string memory sub_county = ownerMapsProperty[msg.sender][indx].sub_county;\n        string memory city = ownerMapsProperty[msg.sender][indx].city;\n\n        return(county, sub_county, city, deedNo);\n    }\n\n    function getRequestedHouses(uint indx) external view returns(string memory, string memory, string memory, uint){\n        \n        uint deedNo = requestedHouses[msg.sender][indx].deedNumber;\n        string memory county = requestedHouses[msg.sender][indx].county;\n        string memory sub_county = requestedHouses[msg.sender][indx].sub_county;\n        string memory city = requestedHouses[msg.sender][indx].city;\n\n        return(county, sub_county, city, deedNo);\n    }\n\n    function getUserProfile() external view returns(string memory, string memory, string memory, uint256, string memory){\n        \n        string memory fullName = userProfile[msg.sender].fullName;\n        string memory gender = userProfile[msg.sender].gender;\n        string memory email = userProfile[msg.sender].email;\n        uint256 contact = userProfile[msg.sender].contact;\n        string memory residentialAddr = userProfile[msg.sender].residentialAddr;\n\n        return(fullName, gender, email, contact, residentialAddr);\n    }\n\n    function getIndices() external view returns(uint, uint){\n\n        uint _totalIndices = userProfile[msg.sender].totalIndices;\n        uint _reqIndices = userProfile[msg.sender].requestIndices;\n\n        return(_totalIndices, _reqIndices);\n    }\n\n\n    function didIRequested(string memory _county, string memory _district, string memory _city, uint _deedNo) external view returns(bool){\n        \n        HouseDetails storage thisHouseDetail = houseDetalsMap[_county][_district][_city][_deedNo];\n        uint _noOfRequests = thisHouseDetail.noOfRequests;\n\n        if(_noOfRequests == 0) \n            return (false);\n\n        for(uint i=0; i<_noOfRequests; i++){\n            if(thisHouseDetail.requests[i].whoRequested == msg.sender){\n                return (true);\n            }\n        } \n\n        return(false);\n    } \n\n}\n",
  "sourcePath": "/home/edison/House-Reg/housing-registry-prototype/contracts/Registry.sol",
  "compiler": {
    "name": "solc",
    "version": "0.8.9+commit.e5eed63a.Emscripten.clang"
  },
  "schemaVersion": "3.4.16",
  "updatedAt": "2024-11-27T05:48:05.605Z",
  "networkType": "ethereum",
  "devdoc": {
    "kind": "dev",
    "methods": {},
    "version": 1
  },
  "userdoc": {
    "kind": "user",
    "methods": {},
    "version": 1
  }
}